:100000000C9463000C948B000C948B000C946D0684
:100010000C946D060C946D060C948B000C948B0064
:100020000C948B000C948B000C948B000C94B105F9
:100030000C948B000C948B000C948B000C948B0014
:100040000C9467050C948B000C9435050C940F05EB
:100050000C948B000C948B000C948B000C948B00F4
:100060000C948B000C948B000000000024002700EF
:100070002A0000000008000201000003040700003D
:1000800000000000000000000000230026002900FE
:1000900000000000250028002B00040404040404D0
:1000A0000404020202020202030303030303010227
:1000B00004081020408001020408102001020408F6
:1000C0001020E5068E0B11241FBECFEFD8E0DEBF57
:1000D000CDBF12E0A0E0B1E0ECE0FDE102C0059090
:1000E0000D92A631B107D9F723E0A6E1B2E001C035
:1000F0001D92A636B207E1F710E0C2E6D0E004C0D8
:100100002197FE010E94780CC136D107C9F70E94E1
:10011000D7070C94790E0C940000AF92BF92CF9247
:10012000DF92EF92FF920F931F93CF93DF936C01B7
:100130007B018B01040F151FEB015E01AE18BF0898
:10014000C017D10759F06991D601ED91FC9101904A
:10015000F081E02DC6010995892B79F7C501DF9162
:10016000CF911F910F91FF90EF90DF90CF90BF90B4
:10017000AF900895FC01538D448D252F30E0842FDE
:1001800090E0821B930B541710F0CF9608950197BF
:100190000895FC01918D828D981761F0A28DAE0FAC
:1001A000BF2FB11D5D968C91928D9F5F9F73928F33
:1001B00090E008958FEF9FEF08952FB7F894809106
:1001C000620290916302A0916402B09165022FBF18
:1001D00080936E0290936F02A0937002B0937102AD
:1001E00086E692E00E94C90097FF26C02FB7F894D8
:1001F0008091620290916302A0916402B0916502C5
:100200002FBF40916E0250916F0260917002709109
:100210007102841B950BA60BB70B40916A0250919B
:100220006B0260916C0270916D0284179507A607AE
:10023000B707B0F28FEF9FEF0895FC01918D828D8B
:10024000981731F0828DE80FF11D858D90E00895AB
:100250008FEF9FEF0895FC01918D228D892F90E003
:10026000805C9F4F821B91098F739927089586E6C2
:1002700092E00E942B0121E0892B09F420E0822FDB
:10028000089580E090E0892B29F00E9437018111C8
:100290000C9400000895FC01A48DA80FB92FB11D86
:1002A000A35ABF4F2C91848D90E001968F739927AC
:1002B000848FA689B7892C93A089B1898C9183708A
:1002C00080648C93938D848D981306C00288F38983
:1002D000E02D80818F7D80830895EF92FF920F93B0
:1002E0001F93CF93DF93EC0181E0888F9B8D8C8DE2
:1002F00098131AC0E889F989808185FF15C09FB7D6
:10030000F894EE89FF896083E889F9898081837098
:10031000806480839FBF81E090E0DF91CF911F9147
:100320000F91FF90EF900895F62E0B8D10E00F5F68
:100330001F4F0F731127E02E8C8D8E110CC00FB63E
:1003400007FCFACFE889F989808185FFF5CFCE01D6
:100350000E944B01F1CFEB8DEC0FFD2FF11DE35A05
:10036000FF4FF0829FB7F8940B8FEA89FB89808159
:100370008062CFCFCF93DF93EC01888D8823B9F0D3
:10038000AA89BB89E889F9898C9185FD03C08081A0
:1003900086FD0DC00FB607FCF7CF8C9185FFF2CF1D
:1003A000808185FFEDCFCE010E944B01E9CFDF9127
:1003B000CF91089590E0FC01EE58FF4F2491FC018D
:1003C000E255FF4F3491FC01E656FF4FE491EE23D6
:1003D000C9F0222339F0233001F1A8F4213019F1BA
:1003E000223029F1F0E0EE0FFF1FE057FF4FA591FB
:1003F000B4918FB7F894EC91611126C030953E23EB
:100400003C938FBF08952730A9F02830C9F02430DD
:1004100049F7809180008F7D03C0809180008F77A5
:1004200080938000DFCF84B58F7784BDDBCF84B528
:100430008F7DFBCF8091B0008F778093B000D2CFBB
:100440008091B0008F7DF9CF3E2BDACFCF93DF9331
:1004500090E0FC01E255FF4F249186569F4FFC012E
:1004600084918823D1F090E0880F991FFC01E8590E
:10047000FF4FA591B491FC01E057FF4FC591D49176
:1004800061110EC09FB7F8948C91E22FE0958E23F6
:100490008C932881E223E8839FBFDF91CF91089559
:1004A0008FB7F894EC91E22BEC938FBFF6CF3FB768
:1004B000F8948091580290915902A0915A02B091FB
:1004C0005B0226B5A89B05C02F3F19F00196A11D20
:1004D000B11D3FBFBA2FA92F982F8827BC01CD018E
:1004E000620F711D811D911D42E0660F771F881FED
:1004F000991F4A95D1F708958F929F92AF92BF921C
:10050000CF92DF92EF92FF924B015C010E94570263
:100510006B017C010E9457026C197D098E099F09AD
:10052000683E734081059105A8F321E0821A910885
:10053000A108B10888EEC80E83E0D81EE11CF11CAA
:1005400081149104A104B10429F7FF90EF90DF908A
:10055000CF90BF90AF909F908F9008950895209175
:100560005E0230915F022817390771F490915C02A6
:1005700080915D02981741F0E0915C02F0E0EA5E44
:10058000FD4F808190E008958FEF9FEF08950895CB
:10059000EF92FF920F931F93CF93DF93DC015C9652
:1005A000ED90FC905D97E114F10479F481E090E026
:1005B00013969C938E93129790E080E0DF91CF91F9
:1005C0001F910F91FF90EF9008955196ED91FC913E
:1005D000529750968C915097982F90950FB75E96A2
:1005E0002C915E97122F127021FD6095F894208156
:1005F000112319F1282B2083E7012197F1F728E037
:10060000462F50E0308160FF1AC0382B3083E7015D
:100610002197F1F7BA0175956795215089F7112354
:1006200081F08081892380830FBF5C968D919C919E
:100630000197F1F781E090E0C1CF2923DCCF392386
:10064000E5CF9081892BEFCF20915E0230915F0240
:100650002817390771F480915D0220915C0290E0C7
:10066000805C9F4F821B910960E470E00E94500CF7
:10067000089590E080E0089520915E0230915F023D
:1006800028173907B9F490915C0280915D029817A0
:1006900089F0E0915C02F0E0EA5EFD4F80812091FC
:1006A0005C0230E02F5F3F4F2F73332720935C02B3
:1006B00090E008958FEF9FEF089590E080E0089517
:1006C000CF93DF93EC0160E08E810E94DA0161E05C
:1006D0008E810E94DA0160E08E810E94DA018BE84F
:1006E00091E00197F1F7DF91CF910895CF92DF92DA
:1006F000EF92FF920F931F93CF93DF936C017C01D6
:1007000087E0E80EF11CD0E0C0E0062F10E0B80151
:100710000C2E02C0759567950A94E2F76170F70197
:1007200081917F010E94DA012196C430D10579F7C9
:10073000C601DF91CF911F910F91FF90EF90DF9055
:10074000CF900C946003CF92DF92EF92FF920F93C1
:100750001F93CF93DF93EC01F62E642F8C810E94C0
:10076000DA018D818F3F19F060E00E94DA010F2DD0
:1007700010E08F8584FF25C06E0187E0C80ED11C74
:10078000F12CE12CB8010E2C02C0759567950A94E6
:10079000E2F76170F60181916F010E94DA01FFEFCB
:1007A000EF1AFF0A88E0E816F10461F7CE01DF9145
:1007B000CF911F910F91FF90EF90DF90CF900C940D
:1007C0006003B80184E0759567958A95E1F7CE01DD
:1007D0000E9476036F2DCE01DF91CF911F910F9173
:1007E000FF90EF90DF90CF900C94760340E0682F5D
:1007F0008BE293E00C94A30381E00E94F6038BE369
:100800009FE10197F1F70895CF93DF93823029F4A8
:1008100090913A03986090933A0380933E0310922C
:100820003F0380E48093400380E18093410380E5AF
:100830008093420361E080912F030E942602809101
:1008400030038F3F19F061E00E94260261E0809141
:1008500031030E942602CBE2D3E09E012B523340AB
:1008600080913A0384FD0BC084E090E02196281724
:10087000390744F461E08E810E942602EECF88E0C1
:1008800090E0F4CF8BE39DE00197F1F760E0809179
:100890002F030E94DA0160E0809131030E94DA01A7
:1008A000809130038F3F19F060E00E94DA0180915F
:1008B0003A0384FD34C063E08BE293E00E94760348
:1008C000CBE4D6E4CE010197F1F763E08BE293E04D
:1008D0000E9476032197F1F763E08BE293E00E9498
:1008E000760383E592E00197F1F762E08BE293E013
:1008F0000E94760380913A0380620E94F60384E0AE
:1009000080933B038CE00E94F6030E94FC0382E08C
:1009100080933C0386E0DF91CF910C94F6038062D4
:100920000E94F6038BE496E40197F1F780913A0375
:1009300080620E94F60383E592E00197F1F78091CF
:100940003A0380620E94F603D5CF90913E03691767
:1009500010F06FEF690FE62FF0E0E55DFC4F948932
:10096000890F80680C94F60341E00E94A30381E0A4
:1009700090E00895FB0101900020E9F73197AF0165
:10098000461B570BDC01ED91FC910280F381E02DB9
:1009900009940F931F93CF93DF93EC010E94BA0445
:1009A0008C0168E371E0CE010E94BA04800F911FB0
:1009B000DF91CF911F910F9108950C94BA04FC011F
:1009C00080819181009711F00C941A0D08950F9376
:1009D0001F93CF93DF93EC0188819981009759F0A1
:1009E0002A813B812617370730F081E0DF91CF91D4
:1009F0001F910F9108958B016F5F7F4F0E94A30D90
:100A0000009759F0998388831B830A832C813D8149
:100A1000232B59F7FC011082E8CF80E0E7CF1F922B
:100A20000F920FB60F9211242F933F934F935F9322
:100A30006F937F938F939F93AF93BF93EF93FF93A6
:100A400086E692E00E944B01FF91EF91BF91AF913A
:100A50009F918F917F916F915F914F913F912F91D6
:100A60000F900FBE0F901F9018951F920F920FB608
:100A70000F9211242F938F939F93EF93FF93E09105
:100A80007602F09177028081E0917C02F0917D0204
:100A900082FD1BC0908180917F028F5F8F732091B8
:100AA0008002821741F0E0917F02F0E0EA59FD4FA9
:100AB000958F80937F02FF91EF919F918F912F915E
:100AC0000F900FBE0F901F9018958081F4CF1F924A
:100AD0000F920FB60F9211242F933F938F939F93F2
:100AE000AF93BF938091620290916302A0916402E0
:100AF000B09165023091570223E0230F2D3758F54E
:100B00000196A11DB11D209357028093620290931C
:100B10006302A0936402B0936502809158029091A1
:100B20005902A0915A02B0915B020196A11DB11D1C
:100B30008093580290935902A0935A02B0935B029B
:100B4000BF91AF919F918F913F912F910F900FBEC9
:100B50000F901F90189526E8230F0296A11DB11D36
:100B6000D2CF1F920F920FB60F9211242F933F9363
:100B70004F935F936F937F938F939F93AF93BF93A5
:100B8000CF93DF93EF93FF9380915602C091270399
:100B9000D0E087FF24C010928500109284008091DD
:100BA00056028F5F8093560280915602082E000CE9
:100BB000990B8C179D0724F4809156028C30C4F158
:100BC0008091840090918500049680349C4908F4BB
:100BD0007AC08091840090918500049676C08091BF
:100BE0005602082E000C990B8C179D07C4F6E09155
:100BF00056028E2FEE0F990BFC01EE0FFF1FE80F30
:100C0000F91FED5FFC4F808186FFC9CFE09156024E
:100C10008E2FEE0F990BFC01EE0FFF1FE80FF91F4F
:100C2000ED5FFC4F808160E08F730E94DA01B7CFE7
:100C30002091840030918500E09156028E2FEE0FB6
:100C4000990BFC01EE0FFF1FE80FF91FED5FFC4F42
:100C500081819281820F931F9093890080938800F5
:100C6000E09156028E2FEE0F990BFC01EE0FFF1F45
:100C7000E80FF91FED5FFC4F808186FF11C0E09106
:100C800056028E2FEE0F990BFC01EE0FFF1FE80F9F
:100C9000F91FED5FFC4F808161E08F730E94DA01E4
:100CA000FF91EF91DF91CF91BF91AF919F918F9184
:100CB0007F916F915F914F913F912F910F900FBE58
:100CC0000F901F90189580E49CE990938900809381
:100CD00088008FEF80935602E3CF1F920F920FB6DA
:100CE0000F9211242F933F934F935F936F937F93B2
:100CF0008F939F93AF93BF93EF93FF93E0915E0227
:100D0000F0915F02309749F0A685B7858585968D6D
:100D100091FF14C09C918923A1F4FF91EF91BF91A1
:100D2000AF919F918F917F916F915F914F913F9183
:100D30002F910F900FBE0F901F9018959C918923B3
:100D400061F7A389B4899C918589809589238C93C7
:100D5000868997890197F1F7608D718DA685B78592
:100D6000558538E020E0CB010197F1F7822F90E024
:100D700095958795282F4C91452309F0206831508F
:100D800091F7868D81FD209580915D0290E001961E
:100D90008F73992730915C02381799F0A0915D020A
:100DA000B0E0AA5EBD4F2C9380935D02828D938D3F
:100DB0000197F1F7A389B4898C919589892B8C933C
:100DC000ACCF868D8160868FF1CFCF931092690270
:100DD0001092680288EE93E0A0E0B0E080936A028F
:100DE00090936B02A0936C02B0936D022CE031E003
:100DF000309367022093660225EC30E03093730253
:100E00002093720224EC30E0309375022093740238
:100E100020EC30E0309377022093760221EC30E032
:100E2000309379022093780222EC30E030937B02F9
:100E300020937A0226EC30E030937D0220937C02EE
:100E400010927F0210928002109281021092820210
:100E500010924603109245038093470390934803F2
:100E6000A0934903B0934A038AE291E0909344032C
:100E70008093430310925A031092590310925C031B
:100E800010925B0310925E0310925D031092600358
:100E900010925F03609161036E7F6D7F60936103C9
:100EA0006695617081E0682783E00E94DA0161E065
:100EB00083E00E942602E1EBF0E0E491E09353032B
:100EC000EDE9F0E0E491F0E0EE0FFF1FE057FF4F97
:100ED00085919491909355038093540360E082E050
:100EE0000E9426028091610381FD04C061E082E0DE
:100EF0000E94DA0182E080934F03E0EBF0E0E4919E
:100F0000E0935003ECE9F0E0E491F0E0EE0FFF1F16
:100F1000EA57FF4F85919491909352038093510328
:100F200010922E0310922D038EE191E090932C03EA
:100F300080932B038DE080932F03CFEFC09330037A
:100F40008CE0809331038BE0809332038AE08093BE
:100F5000330389E08093340388E080933503109253
:100F6000360310923703109238031092390310920F
:100F70003A0381E00E940404809127038C30A0F49E
:100F800091E0980F909327038093280390E0FC0151
:100F9000EE0FFF1FE80FF91FED5FFC4F88EB9BE0A2
:100FA00092838183CF910895C0932803FBCFCF9381
:100FB000DF93CDB7DEB7AE970FB6F894DEBF0FBEA6
:100FC000CDBF789484B5826084BD84B5816084BDD2
:100FD00085B5826085BD85B5816085BD80916E00D7
:100FE000816080936E001092810080918100826008
:100FF0008093810080918100816080938100809145
:1010000080008160809380008091B1008460809333
:10101000B1008091B00081608093B00080917A002F
:10102000846080937A0080917A00826080937A0055
:1010300080917A00816080937A0080917A00806844
:1010400080937A001092C10061E087E00E9426023E
:1010500061E086E00E942602809128038C3008F02F
:1010600051C061E085E00E94260280912803282F6C
:1010700030E0F901EE0FFF1FE20FF31FED5FFC4FB1
:101080009081907C956090831092290310922A039E
:101090002CE0622F0E94440C829FB001112430E0AA
:1010A00020E0AB01420F531FFA01EE0FFF1FE40FC8
:1010B000F51FED5FFC4F908196FD16C02F5F3F4FEF
:1010C0002C30310571F781110FC01092800082E041
:1010D000809381001092850010928400B19A8091D3
:1010E0006F00826080936F00E09128038E2F90E064
:1010F000FC01EE0FFF1FE80FF91FED5FFC4F808131
:101100008064808310925E0310925D0310925C03F2
:1011100010925B0310925A03109259038DE991E0EB
:101120009093600380935F0390914F03963108F092
:1011300047C02DEB30E030935A03209359032BE93D
:1011400031E030935C0320935B032CE231E0309379
:101150005E0320935D032091680084E0983048F09E
:1011600031E09E3008F430E081E001C0880F3A950C
:10117000EAF7822B809368002DE630E0983050F03B
:101180002BE630E09E3030F02CE630E0963110F067
:1011900030E020E03093570320935603292F30E0AE
:1011A000983008F0D8C081E001C0880F9A95EAF71E
:1011B0008093580380915F03909160030197F1F74A
:1011C00080915D0390915E03892B49F1E0915E026D
:1011D000F0915F0233E0E334F30709F1309739F01F
:1011E000A389B4899C918589809589238C9380916A
:1011F00061038E7F8093610310925D0210925C0206
:1012000083E493E090935F0280935E02E091560343
:10121000F0915703808190915803892B8083E0914E
:101220007602F091770282E08083E0917202F09181
:1012300073021082E0917402F09175028FEC80834A
:1012400010927E02E0917A02F0917B0286E0808328
:10125000E0917802F0917902808180618083E09151
:101260007802F0917902808188608083E091780231
:10127000F0917902808180688083E0917802F0911A
:10128000790280818F7D808382E00E94040460E087
:1012900080E00E94A5046BE371E08BE293E00E9482
:1012A000DD046AE471E086E692E00E94C9047AE017
:1012B000C72ED12CE12CF12CE4EB8E2E912CA12CFD
:1012C000B12C8091000190910101181619060CF0C3
:1012D000EAC186E692E00E942B01892B91F319A6C0
:1012E00018A61BA61AA61DA61CA670E060E0CE01DB
:1012F00088960E94E70428A539A5811139C02115D7
:10130000310519F0C9010E941A0D19A618A61DA6CB
:101310001CA61BA61AA60E94DD004CA55DA597FD84
:101320002FC089831A828A010F5F1F4FB801CE0137
:1013300088960E94E704882371F328A539A58CA517
:101340009DA5BE016F5F7F4F820F931F0E94720E9B
:101350001DA70CA7E0CF9E3040F42850310981E052
:1013600001C0880F2A95EAF723CF2E503109F7CF15
:101370001DA61CA66AE371E0C9010E94720ECBCFC4
:1013800068A579A586E692E00E948D0068E371E089
:1013900086E692E00E94BA048CA59DA5892B09F4EB
:1013A000CBC06BE571E088A599A50E94690E892BD9
:1013B00009F0C2C060E086E00E94DA010E94FC03EE
:1013C00064E670E080E090E00E947C0260E083E0F0
:1013D0000E94A5046FE571E08BE293E00E94DD04BA
:1013E00061E081E00E94A50468E671E08BE293E091
:1013F0000E94DD0464E670E080E090E00E947C02E0
:1014000061E087E00E94DA011092610210926002AE
:10141000A0916002B0916102A53BB1050CF069C0DA
:10142000809128038EA78C3008F053C080912A0346
:1014300048E5642E42E0742E681A710887FD7394A3
:10144000660C771C660C771C8091290308E810E075
:10145000081B110987FD1395000F111F000F111FA5
:101460001801012E000C44085508B7FF02C0B0E077
:10147000A0E09301072C000C440B550B22193309F3
:10148000440955090E94D40BA50194010E94AA0B9E
:10149000BA01A901420D531D641D751D4017510766
:1014A0002CF08301461557050CF48A0102501109EE
:1014B000000F111F2FB7F894EEA58E2F90E0FC01BE
:1014C000EE0FFF1FE80FF91FED5FFC4F1283018342
:1014D0002FBF6AE070E080E090E00E947C02809183
:1014E0006002909161020196909361028093600284
:1014F0008FCF0E94FC0360E082E00E94A50466E7B3
:1015000071E08BE293E00E94DD0461E083E00E94E1
:10151000A50462E871E08BE293E00E94DD0460E0E4
:1015200087E00E94DA0161E086E00E94DA01CE01E4
:1015300088960E94DF04C5CE1BA21AA21DA21CA27F
:101540001FA21EA261E070E0CE0182960E94E70415
:101550002AA13BA181117FC02115310519F0C901D4
:101560000E941A0D1BA21AA21FA21EA21DA21CA23B
:101570000E94FC0364E670E080E090E00E947C0240
:1015800060E080E00E94A50469E871E08BE293E0EE
:101590000E94DD0461E080E00E94A504409000010B
:1015A00050900101F1E04F1A5108052C000C66081B
:1015B000770877FE5AC041E06DE28BE293E00E942B
:1015C000A30322273327A9012419350946095709FE
:1015D00019A28E010F5D1F4FCA01B901A701960123
:1015E0000E94130C605DF80162938F012115310593
:1015F0004105510589F70115110529F0B8018BE264
:1016000093E00E94BA046AE971E08BE293E00E94E1
:10161000DD0461E086E00E94DA0180910001909192
:1016200001010197C1F167EA71E086E692E00E944C
:10163000C9048091000190910101019790930101EB
:1016400080930001CE0182960E94DF04CE0188962D
:101650000E94DF043ECE81E090E09FA38EA369E567
:1016600071E0C9010E94720E83CFA301920119A2F9
:101670008E010F5D1F4FCA01B901A70196010E949B
:10168000130C605DF80162938F012115310541054E
:10169000510589F7B0CFCE0182960E94DF04CE01BA
:1016A00088960E94DF040E94FC0364E670E080E0FC
:1016B00090E00E947C0260E080E00E94A5046EEB56
:1016C00071E08BE293E00E94DD046EEB71E086E650
:1016D00092E00E94DD0461E086E00E94DA016EEC97
:1016E00071E083E493E00E94C9046AEE71E083E450
:1016F00093E00E94DD0460EA76E881E090E00E94D9
:101700007C0280E090E0892B09F4DBCD0E94370158
:10171000882309F4D6CD0E940000D3CD8AE291E05F
:10172000909344038093430380915E0290915F0203
:101730008354934071F4E0915603F09157039081E4
:101740008091580380958923808310925F021092C4
:101750005E020895052E97FB1EF400940E94C10BB3
:1017600057FD07D00E94130C07FC03D04EF40C94D5
:10177000C10B50954095309521953F4F4F4F5F4F8E
:10178000089590958095709561957F4F8F4F9F4FED
:1017900008950E94350CA59F900DB49F900DA49FB5
:1017A000800D911D11240895B7FF0C94C90B0E9460
:1017B000C90B821B930B08952F923F924F925F9219
:1017C0006F927F928F929F92AF92BF92CF92DF9251
:1017D000EF92FF920F931F93CF93DF93CDB7DEB7B6
:1017E000CA1BDB0B0FB6F894DEBF0FBECDBF09944A
:1017F0002A88398848885F846E847D848C849B84A1
:10180000AA84B984C884DF80EE80FD800C811B81AE
:10181000AA81B981CE0FD11D0FB6F894DEBF0FBEDD
:10182000CDBFED010895A1E21A2EAA1BBB1BFD013D
:101830000DC0AA1FBB1FEE1FFF1FA217B307E407AF
:10184000F50720F0A21BB30BE40BF50B661F771F07
:10185000881F991F1A9469F76095709580959095E7
:101860009B01AC01BD01CF010895A29FB001B39FC0
:10187000C001A39F700D811D1124911DB29F700D99
:10188000811D1124911D0895991B79E004C0991FB1
:10189000961708F0961B881F7A95C9F780950895CA
:1018A00097FB072E16F4009407D077FD09D00E940D
:1018B000640C07FC05D03EF4909581959F4F0895E8
:1018C000709561957F4F0895AA1BBB1B51E107C01E
:1018D000AA1FBB1FA617B70710F0A61BB70B881FC0
:1018E000991F5A95A9F780959095BC01CD0108954F
:1018F000EE0FFF1F0590F491E02D09940F931F93B5
:10190000CF93DF938230910510F482E090E0E09174
:101910006403F091650330E020E0B0E0A0E0309790
:1019200099F42115310509F44AC0281B390B2430DC
:101930003105D8F58A819B816115710589F1FB011B
:1019400093838283FE0111C0408151810281138102
:1019500048175907E0F04817590799F4109761F0B4
:1019600012960C93129713961C933296CF01DF9127
:10197000CF911F910F910895009364031093650315
:10198000F4CF2115310551F04217530738F0A90162
:10199000DB019A01BD01DF01F801C1CFEF01F9CFF1
:1019A0009093650380936403CDCFFE01E20FF31F94
:1019B000819391932250310939832883D7CF209185
:1019C000620330916303232B41F420910401309191
:1019D000050130936303209362032091020130914B
:1019E00003012115310541F42DB73EB740910601A1
:1019F00050910701241B350BE0916203F0916303C2
:101A0000E217F307A0F42E1B3F0B2817390778F0D5
:101A1000AC014E5F5F4F2417350748F04E0F5F1F34
:101A20005093630340936203819391939FCFF0E0BF
:101A3000E0E09CCFCF93DF930097E9F0FC01329771
:101A400013821282A0916403B0916503ED0130E02E
:101A500020E01097A1F420813181820F931F209103
:101A60006203309163032817390709F061C0F093CE
:101A70006303E0936203DF91CF910895EA01CE17EB
:101A8000DF07E8F54A815B819E0141155105B1F7F9
:101A9000E901FB83EA8349915991C40FD51FEC17E3
:101AA000FD0761F4808191810296840F951FE90101
:101AB00099838883828193819B838A83F0E0E0E02D
:101AC00012968D919C9113970097B9F52D913C91A9
:101AD0001197CD010296820F931F209162033091DE
:101AE00063032817390739F6309751F510926503CB
:101AF00010926403B0936303A0936203BCCFD383BB
:101B0000C28340815181840F951FC817D90761F4A2
:101B10004E5F5F4F88819981480F591F51834083E1
:101B20008A819B81938382832115310509F0B0CF8F
:101B3000F0936503E09364039ECFFD01DC01C0CF09
:101B400013821282D7CFB0E0A0E0E9EAFDE00C9466
:101B5000DE0B8C01009751F4CB010E947E0C8C01AE
:101B6000C801CDB7DEB7E0E10C94FA0BFC01E60F3B
:101B7000F71F9C0122503109E217F30708F49DC0BA
:101B8000D901CD91DC911197C617D70798F0C530D0
:101B9000D10530F3CE0104978617970708F3C61BCB
:101BA000D70B2297C193D1936D937C93CF010E9461
:101BB0001A0DD6CF5B01AC1ABD0A4C018C0E9D1ECE
:101BC000A0916403B0916503512C412CF12CE12CC0
:101BD000109731F580916203909163038815990500
:101BE00009F05CC04616570608F058C08091020103
:101BF00090910301009741F48DB79EB74091060183
:101C000050910701841B950BE817F90708F055C0A0
:101C1000F0936303E0936203F90171836083A0CFC3
:101C20008D919C91119712966C90129713967C90BF
:101C30001397A815B90559F56C0142E0C40ED11CE3
:101C4000CA14DB0420F1AC014A195B09DA011296CF
:101C5000159780F06282738251834083D9016D931E
:101C60007C93E114F10471F0D7011396FC93EE9389
:101C7000129776CF22968C0F9D1FF9019183808356
:101C8000F301EFCFF0936503E093640369CF481647
:101C9000590608F42C017D01D3019ACFCB010E9493
:101CA0007E0C7C01009749F0AE01B8010E94600EE5
:101CB000C8010E941A0D870153CF10E000E050CFF9
:101CC000FB01DC0102C001900D9241505040D8F759
:101CD0000895FB01DC018D91019080190110D9F369
:101CE000990B0895FB01DC0101900D920020E1F7B2
:101CF000089510E0C2E6D0E004C0FE010E94780C16
:0C1D00002196C336D107C9F7F894FFCF35
:101D0C000500000066038000000000006D018D00DE
:101D1C00BA00BA012B01C9001D0100000000B40477
:101D2C008D005D03AE0200000000C8028D005D0353
:101D3C00C70224033C03AF020D0A00456E746572A2
:101D4C002070617373636F646500456E74657220F7
:101D5C0070617373636F64653A20003132330075C0
:101D6C006E6C6F636B6564002D2D2D77656C636FE6
:101D7C006D652D2D2D006C6F636B656420666F7225
:101D8C00200073616665747900706C656173652001
:101D9C0074727920616761696E0020617474656D7D
:101DAC0074206C65667400456E7465722070617386
:101DBC0073636F646520616761696E3A20004E4FF2
:101DCC00204D4F524520415454454D5054004154E0
:101DDC00202B20434D4753203D20222B3235317888
:101DEC0078787878787878782200534F4D454F4E34
:101DFC004520495320545259494E4720544F2042B4
:101E0C005245414B20494E544F20594F5552204872
:061E1C004F555345000084
:00000001FF
